:020000040800F2
:10000000480A0020910100088D3700084734000895
:1000100089370008AD0600087D4200080000000096
:10002000000000000000000000000000873A000807
:10003000ED0600080000000091370008893A00082A
:10004000AB010008AB010008AB010008193900083A
:10005000AB010008AB010008AB010008AB010008D0
:10006000FB060008AB010008AB010008AB0100086B
:10007000AB010008AB010008AB010008AB010008B0
:10008000AB010008B1060008B1050008AB0100088B
:10009000AB010008AB010008AB0100080507000830
:1000A000AB010008AB010008AB010008AB01000880
:1000B000113B0008453B000800000000AB010008B0
:1000C000AB0100080000000000000000AB010008C8
:1000D000000000006D420008AB01000800000000B5
:1000E000EF060008AB010008AB01000800F002F8C1
:1000F00000F03FF80AA090E8000C82448344AAF183
:100100000107DA4501D100F034F8AFF2090EBAE880
:100110000F0013F0010F18BFFB1A43F0010318473B
:100120002048000040480000103A24BF78C878C139
:10013000FAD8520724BF30C830C144BF04680C60ED
:10014000704700000023002400250026103A28BF35
:1001500078C1FBD8520728BF30C148BF0B60704739
:10016000642900F07180002070471FB51FBD10B5D5
:1001700010BD00F0E2F91146FFF7F7FF04F0C2F9F5
:1001800000F000FA03B4FFF7F2FF03BC00F008FA36
:100190000948804709480047FEE7FEE7FEE7FEE71B
:1001A000FEE7FEE7FEE7FEE7FEE7FEE70448054957
:1001B000054A064B704700000F3B0008ED000008A1
:1001C00048040020480A0020480600204806002075
:1001D0000FB41CB5074B06AA7B44694600900598EE
:1001E00000F093F90020694600F0A2F91CBC5DF80C
:1001F00014FB00005503000070B5044685690068D3
:10020000C10601D5302600E02026C00707D070BD0A
:10021000D4E9012130469047206A401C20626D1EBF
:10022000F6D570BD70B5044685690078C00707D162
:1002300070BDD4E9012120209047206A401C206233
:100240006D1EF6D570BD00002DE9F0410646002474
:1002500010687529314616A510D0AFF3008000282C
:1002600002DA404213A507E031688A0701D512A5DA
:1002700002E0490704D511A5012401E0AFF3008095
:1002800000210A2206F1240709E0B0FBF2FCB0FBD2
:10029000F2F302FB1C00303078541846491C002849
:1002A000F3D123462A463046BDE8F04100F0CEB8EF
:1002B000000000002D0000002B00000020000000C6
:1002C0002DE9F05F894604464FF0000ADFF824B1BB
:1002D000FB44C0F820A02046E168884700287DD074
:1002E000252806D0D4E901219047206A401C2062CD
:1002F000F1E700255F462046E1688847202806464A
:1003000007DB312E05D2B81910F8200C08B10543CF
:10031000F1E7A80701D525F00405C4F81CA00027C3
:10032000C4F818A02A2E09D0304603F0C5FF38B310
:1003300004EB8708303EC8F8186019E059F8041B30
:10034000204604EB87029161E1688847012F064649
:1003500018D1E069002820DA25F020051DE0D8F842
:10036000180000EB800006EB40003038C8F8180099
:100370002046E1688847064603F09EFF0028EED13C
:10038000012F0AD02E2E08D12046E16888477F1C15
:100390000646022F45F02005C4DBA069002803DAD9
:1003A000404245F00105A061E80701D025F01005A5
:1003B000A6B1A6F14100192802D8203645F40065FF
:1003C0004A463146204625604D46FFF7C9FE60B1DA
:1003D000012807D0ED1D25F0070000E007E000F13F
:1003E000080978E705F1040975E730467AE7206ADD
:1003F000BDE8F09F584600004FF0000200B51346DC
:1004000094469646203922BFA0E80C50A0E80C5034
:10041000B1F12001BFF4F7AF090728BFA0E80C50E5
:1004200048BF0CC05DF804EB890028BF40F8042BDE
:1004300008BF704748BF20F8022B11F0804F18BF4B
:1004400000F8012B70477047704770472DE9F0475F
:100450000D4699469246044600F124080168880634
:1004600004D5E06921F01001216000E00120A842DC
:1004700001DD471B00E00027A1697A1902EB0900A2
:10048000081AA0612078C00602D42046FFF7B4FE07
:10049000002608E0D4E901211AF806009047206AF6
:1004A000401C761C20624E45F4DB2078C0060AD53D
:1004B0002046FFF7A1FE06E0D4E901213020904755
:1004C000206A401C2062381EA7F10107F4DC07E017
:1004D000D4E9012118F805009047206A401C2062E9
:1004E000281EA5F10105F3DC2046FFF79BFE2078CE
:1004F000000602D50220BDE8F0870120FBE70000DE
:1005000001694A1C02610878704700B58FB0CDE9D7
:1005100001310021059105497944CDE903101146C7
:100520006846FFF7CDFE0FB000BD0000E5FFFFFFFE
:100530000A6802F8010B0A607047754600F02CF853
:10054000AE4605006946534620F00700854618B0C0
:1005500020B5FFF72BFEBDE820404FF000064FF01E
:1005600000074FF000084FF0000B21F00701AC46E8
:10057000ACE8C009ACE8C009ACE8C009ACE8C00907
:100580008D46704710B50446AFF300802046BDE8A5
:100590001040FFF7F7BD000000487047E40300205B
:1005A00001491820ABBEFEE726000200704700009C
:1005B00010B5024800F0E0F910BD000088020020EC
:1005C00070B5044600252068806800F0010018B36B
:1005D0002068806820F001002168886001F05CF8E4
:1005E000054613E001F058F8401B02280ED9206898
:1005F000806800F0010048B1A06A40F01000A062DD
:10060000E06A40F00100E062012070BD206880686F
:1006100000F001000028E5D10020F6E738B50446D7
:100620000025002000902068806800F0010078BB61
:100630002068806840F001002168886019480068DF
:100640001949B0FBF1F0009002E00098401E0090C4
:1006500000980028F9D101F01FF8054619E001F0D3
:100660001BF8401B022814D92068806800F00100A4
:1006700078B9A06A40F01000A062E06A40F0010082
:10068000E06200BF002084F8240000BF012038BDD4
:1006900005E02068806800F001000028DFD000201D
:1006A000F5E70000F400002040420F0000BFFEE725
:1006B00010B5024800F01EFC10BD00005C030020D5
:1006C00030B590F840500124AC40C56B6C600468B4
:1006D00063604468102C04D10468A2600468E1607F
:1006E00003E00468A1600468E26030BD704710B5A3
:1006F0004FF4006000F024FE10BD10B5042000F09F
:100700001FFE10BD10B5202000F01AFE4FF48070BF
:1007100000F016FE10BD72B600BFFEE77047000085
:1007200038B5024600230020009000BF92F8240054
:10073000012801D1022038BD012082F8240000BF29
:100740004868072812D21068406B0C79641E04EBCD
:1007500084051F24AC40A0430D796D1E05EB850573
:100760000C68AC4020431468606327E048680D289B
:1007700012D21068006B0C79E41F04EB84051F246F
:10078000AC40A0430D79ED1F05EB85050C68AC402E
:1007900020431468206311E01068C06A0C790D3C96
:1007A00004EB84051F24AC40A0430D790D3D05EBFF
:1007B00085050C68AC4020431468E06208680A288C
:1007C00012D31068C0680C780A3C04EB4405072477
:1007D000AC40A0430D780A3D05EB45058C68AC4064
:1007E00020431468E0600FE0106800690C7804EBA7
:1007F00044050724AC40A0430D7805EB45058C6803
:10080000AC402043146820610868102802D00868B2
:10081000112827D1174C1068A0421ED1106880689B
:1008200000F40000F0B91068806840F4000014681B
:10083000A0600868102815D10F4800680F4CB0FB65
:10084000F4F000EB80004000009002E00098401EB1
:10085000009000980028F9D104E0906A40F0200050
:100860009062012300BF002082F8240000BF1846D8
:1008700061E7000000240140F400002040420F0026
:100880002DE9F04781462D4800F072F884B22046E9
:1008900003F02FFF07464FF06632294B03F03CFF71
:1008A000054603F0F7FE642190FBF1F0254908604E
:1008B000084625A102682948FFF78AFC28480068F5
:1008C000012832D11F4800682649096888420CD99E
:1008D00000224FF40071244800F0D8FE00224FF4AB
:1008E0008061214800F0D2FE1FE0164800680F38F2
:1008F0001C490968884218D21C4A127802F001008B
:100900001A4A1278C2F3400110B14FF4007201E0AC
:100910004FF0007211B14FF4806301E04FF080633B
:100920001A43114B10331A6000BF044800F038FA24
:1009300008B1FFF7F0FEBDE8F08700008802002054
:10094000666628400400002054656D70203D202517
:100950002D3364204320202020000000F8000020D8
:100960002000002018000020000801401400002092
:1009700001460868C06C704710B50446206840689E
:1009800000F0200020282FD12068006800F002002D
:10099000022829D1A06A00F0100018B9A06A40F41A
:1009A0000070A0622068806800F46020B0F5602FBD
:1009B00013D1207B88B92068406820F0200021688E
:1009C0004860A06A20F48070A062A06A00F48050A1
:1009D00018B9A06A40F00100A0622046FFF750FF5E
:1009E0006FF01200216808602068406800F0800005
:1009F00080283BD12068006800F00400042835D12D
:100A0000A06A00F0100018B9A06A40F40050A0627B
:100A10002068806800F4E040B0F5E04F0DD0206819
:100A2000406800F48060D0B92068806800F46020DD
:100A3000B0F5602F13D1207B88B92068406820F082
:100A4000800021684860A06A20F48050A062A06AFB
:100A500000F4807018B9A06A40F00100A06220463E
:100A6000FFF75CFE6FF00C002168086020684068AA
:100A700000F0400040280FD12068006800F001001D
:100A800050B1A06A40F48030A062204600F0A8F87F
:100A90006FF001002168086010BD00002DE9F041F1
:100AA0000446002700250026A84614B90120BDE809
:100AB000F081A06810B1207D00B100BFA06A30B9FC
:100AC0000020E06284F82400204600F08BF82046E5
:100AD000FFF776FD0746A06A00F01000002873D1EA
:100AE000002F71D1A06A20F4885040F00200A0626B
:100AF000E16960680843217B40EA41000643A06841
:100B0000B0F5807F02D0A068012802D14FF4807038
:100B100000E000200543207D012811D1207B38B959
:100B2000A069401E4FF4006141EA4030054307E0F0
:100B3000A06A40F02000A062E06A40F00100E0629C
:100B40002068406820F46940284321684860206894
:100B5000806821490840304321688860A068B0F56A
:100B6000807F02D0A068012802D14FF4807000E09D
:100B70000020B0F5807F03D1208A401E4FEA005844
:100B80002068C06A20F4700040EA08002168C8624A
:100B90002068806811490840B04208D10020E06216
:100BA000A06A20F0020040F00100A06211E0A06AFB
:100BB00020F0020040F01000A062E06A40F0010066
:100BC000E062012705E0FFE7A06A40F01000A062A4
:100BD000012738466BE70000FDF7E1FFFE0E1FFF1F
:100BE0007047000010B586B00446002002900390C4
:100BF000049005901849206888422AD100BF174800
:100C0000806940F40070154988610846806900F4E5
:100C10000070019000BF00BF00BF0846806940F02F
:100C2000040088610846806900F00400019000BF5C
:100C300000BF082002900320039002A9084800F09A
:100C40008DFB00221146122000F0ACFD122000F0B6
:100C500099FD06B010BD00000024014000100240C4
:100C60000008014070B50446002500BF94F8240038
:100C7000012801D1022070BD012084F8240000BFAA
:100C80002046FFF7CBFC0546002D7DD1A06A40F63B
:100C90000161884340F48070A0623F492068884227
:100CA00008D13E48006800F4702008B9012002E035
:100CB000002000E0012078B1A06A20F48010A0623A
:100CC0002068406800F4806000B3A06A20F40050FF
:100CD00040F48050A06219E0A06A40F48010A06245
:100CE0002E49091F2068884203D02B49206888427A
:100CF00004D12A48006800F4806000E0002028B198
:100D0000A06A20F4005040F48050A062A06A00F471
:100D1000805020B1E06A20F00600E06201E000208F
:100D2000E06200BF002084F8240000BFC01E2168DC
:100D300008602068406840F0200021684860206812
:100D4000806800F46020B0F5602F16D11249206849
:100D5000884208D11148006800F4702008B90120C9
:100D600002E0002000E0012038B12068806840F4F3
:100D7000A000216888600CE006E02068806840F4EC
:100D800080102168886004E000BF002084F82400FF
:100D900000BF28466FE700000028014004240140FE
:100DA00070B50446002500BF94F82400012801D145
:100DB000022070BD012084F8240000BF2046FFF708
:100DC000FFFB05465DB92068406820F020002168DF
:100DD0004860A06A20F4885040F00100A06200BF83
:100DE000002084F8240000BF2846E2E701460022E4
:100DF00091F82100022808D00420886300BF002059
:100E000081F8200000BF012070470868006820F0CA
:100E10000E000B6818600868006820F001000B687D
:100E2000186091F8403001209840CB6B5860012049
:100E300081F8210000BF002081F8200000BF10468B
:100E4000E2E7000070B50446002594F8210002286E
:100E500003D00420A063012548E02068006820F04A
:100E60000E00216808602068006820F001002168F9
:100E700008601F492068884201D1012026E01C49F2
:100E800014312068884201D110201FE01849283110
:100E90002068884201D1801518E015493C3120684E
:100EA000884201D1801411E01149503120688842F4
:100EB00002D14FF4803009E00D4964312068884246
:100EC00002D14FF4801001E04FF0807008490839DA
:100ED0004860012084F8210000BF002084F8200031
:100EE00000BF606B10B12046616B8847284670BD1B
:100EF0000800024070B50446E06B0568206806688B
:100F000094F84010042088402840002846D006F07D
:100F10000400002842D02068006800F0200028B9B2
:100F20002068006820F004002168086057492068A4
:100F3000884201D1042027E05449143120688842B6
:100F400001D1402020E0514928312068884201D158
:100F5000001519E04D493C312068884202D14FF418
:100F6000804011E0494950312068884202D14FF455
:100F7000802009E0454964312068884202D14FF45D
:100F8000800001E04FF08060404908394860E06A25
:100F900000287AD02046E16A884776E094F840102D
:100FA000022088402840A0B306F0020088B32068E1
:100FB000006800F0200040B92068006820F00A00B6
:100FC00021680860012084F82100304920688842A7
:100FD00001D1022028E02D4914312068884201D136
:100FE000202021E0294928312068884201D140157C
:100FF0001AE026493C312068884202D14FF4005063
:1010000012E0224950312068884203D14FF4003069
:101010000AE017E01D4964312068884202D14FF48C
:10102000001001E04FF0007018490839486000BF17
:10103000002084F8200000BFA06A30B32046A16AD7
:10104000884722E094F84010082088402840E0B10A
:1010500006F00800C8B12068006820F00E00216882
:10106000086094F8401001208840E16B486001203E
:10107000A06384F8210000BF002084F8200000BF96
:10108000206B10B12046216B884770BD08000240DC
:101090000146002209B901207047164B0868C01AA2
:1010A0001423B0FBF3F08000086412480838C863CA
:1010B000022081F821000868026843F6F07082433C
:1010C000D1E901031843CB6818430B6918434B69F6
:1010D00018438B691843CB691843024308680260C0
:1010E00000208863012081F82100002081F8200081
:1010F00000BFD1E7080002402DE9F04104460D464B
:1011000016461F464FF0000800BF94F82000012843
:1011100002D10220BDE8F081012084F8200000BF48
:1011200094F8210001282CD1022084F8210000200D
:10113000A0632068006820F00100216808603B4639
:10114000324629462046FFF7BBFAE06A30B12068F4
:10115000006840F00E00216808600BE0206800681D
:1011600020F00400216808602068006840F00A0050
:10117000216808602068006840F00100216808606C
:1011800006E000BF002084F8200000BF4FF00208F6
:101190004046BFE770B5044600F07EFA0646254695
:1011A000681C10B104480078054400BF00F074FAD0
:1011B000801BA842FAD370BDF000002070B5044631
:1011C000002049490860B4F5006F36D147480068EF
:1011D00098BB47480078474908704FF4006146487B
:1011E00000F042FA4249087044480078401C4349E4
:1011F00008700878C11700EB91718910A0EB81018C
:1012000011B901203D4908703C48007800F0010503
:101210003A480078C0F3400615B14FF4007001E081
:101220004FF0007016B14FF4806101E04FF0806123
:10123000084331491031086000BF042C16D100204A
:101240002F490860A1022C4800F016FA27490968C6
:10125000481C00EBD0714910A0EB4101234A1160FA
:101260001046006810B9002026490860B4F5807F58
:1012700019D11E480068B0B92348006814302249CB
:10128000086008460068C821B0FBF1F201FB1200BB
:101290001D49086008461DA102682148FEF798FF15
:1012A000012018490860202C1DD110480068D0B9D1
:1012B0001C480068401D1B49086008460068B421AE
:1012C000B0FBF1F201FB1200164908600846006805
:1012D0000B490860134814A102681848FEF778FF0C
:1012E00001200849086070BDD000002020000020C7
:1012F0000000002001000020000801401400002030
:10130000CC000020DC000020180000205365742071
:1013100054656D70203D20252D336420430000006E
:101320002C0000201C000020536574204475722E90
:10133000203D20252D3364206D0000007C0000201E
:1013400010B5044604480068204020B102480460FB
:101350002046FFF733FF10BD140401402DE9F84784
:1013600003460022944666E14FF0010808FA02F4B1
:10137000D1F8008008EA0400A0427DD1DFF8CCA2B9
:10138000D1F80480A8EB0A09D0453AD014DCB8F1B2
:10139000030F50D009DCB8F1000F31D0B8F1010FC4
:1013A0001CD0B8F1020F49D120E0B8F1110F18D0CC
:1013B000B8F1120F42D11EE0B9F5881F25D006DC26
:1013C000B9F5803F20D0B9F5801F37D11AE0B9F5C3
:1013D000001F18D0B9F5041F30D117E0D1F80CC0A8
:1013E0002DE0D1F80C8008F1040C28E0D1F80C8035
:1013F00008F1080C23E0D1F80C8008F10C0C1EE079
:1014000000BF00BF00BF00BF00BF00BFD1F8088011
:10141000B8F1000F02D14FF0040C0BE0D1F80880B6
:10142000B8F1010F03D14FF0080C1C6102E04FF03E
:10143000080C5C6103E04FF0000C00E000BF00BF4F
:10144000FF2801D8984601E003F104084646FF282A
:1014500002D84FEA820803E0A2F108084FEA8808A0
:101460004746D6F800804FF00F0909FA07F928EA35
:1014700009080CFA07F900E085E048EA0908C6F80F
:101480000080D1F8048008F08058B8F1805F7AD1EC
:1014900000BFDFF8BC81D8F8188048F00108DFF8F9
:1014A000B091C9F81880C846D8F8188008F001082B
:1014B000CDF8008000BF00BF4FEAB9384FEA92096B
:1014C00058F829504FEA82784FEA18794FF00F0800
:1014D00008FA09F825EA0805DFF87881434502D1C2
:1014E0004FF000080FE0DFF87081434502D14FF064
:1014F000010808E0DFF86481434502D14FF002089B
:1015000001E04FF003084FEA82794FEA197908FAAF
:1015100009F848EA0505DFF848814FEA920948F8DA
:101520002950D1F8048008F48038B8F5803F0AD1FA
:10153000DFF83081D8F8008048EA0008DFF824910D
:10154000C9F8008009E0DFF81C81D8F8008028EA9B
:101550000008DFF81091C9F80080D1F8048008F481
:101560000038B8F5003F0FD1DFF8F88008F1040823
:10157000D8F8008048EA0008DFF8E89009F104098B
:10158000C9F800800EE055E0DFF8D88008F10408C3
:10159000D8F8008028EA0008DFF8C89009F10409AB
:1015A000C9F80080D1F8048008F48018B8F5801FCD
:1015B0000ED1DFF8B08008F10808D8F8008048EABA
:1015C0000008DFF8A09009F10809C9F800800DE0D3
:1015D000DFF8908008F10808D8F8008028EA0008B1
:1015E000DFF8809009F10809C9F80080D1F804807B
:1015F00008F40018B8F5001F0ED1DFF8688008F174
:101600000C08D8F8008048EA0008DFF8589009F183
:101610000C09C9F800800DE0DFF8488008F10C08DB
:10162000D8F8008028EA0008DFF8389009F10C09A2
:10163000C9F80080521CD1F8008028FA02F8B8F1ED
:10164000000F7FF491AEBDE8F88700000000111094
:101650000010024000080140000C01400010014051
:101660000800014000040140024693680B400BB1A2
:10167000012000E00020704710B5C26821EA020393
:1016800002EA010443EA0443036110BD0AB10161A7
:1016900001E00B04036170470148006870470000D7
:1016A000E80000200348006803490978084401491C
:1016B00008607047E8000020F000002010B50848DE
:1016C000006840F0100006490860032000F0A8F808
:1016D0000F2000F007F800F02BF8002010BD0000EC
:1016E0000020024070B504460E4800784FF47A712D
:1016F000B1FBF0F00C490968B1FBF0F5284600F0A9
:10170000C8FF08B1012070BD102C07D2002221466D
:10171000501E00F047F80548046001E00120F2E7A0
:101720000020F0E7F0000020F4000020EC00002092
:1017300008B500BF1148806940F001000F49886179
:101740000846806900F00100009000BF00BF00BFA4
:101750000846C06940F08050C8610846C06900F082
:101760008050009000BF00BF00BF0549486820F0CE
:10177000E06040F00070486000BF08BD001002400B
:101780000000014001460846002809DB00F01F0365
:1017900001229A4043099B0003F1E023C3F8002192
:1017A00000BF70472DE9F05F80460D4616460027C2
:1017B00002F066FD074639462A46334601F0070027
:1017C000C0F1070ABAF1040F02D94FF0040A01E090
:1017D000C0F1070AD14600F1040ABAF1070F02D29C
:1017E0004FF0000A01E0A0F1030AD4464FF0010ACD
:1017F0000AFA09FAAAF1010A0AEA020A0AFA0CFA32
:101800004FF0010B0BFA0CFBABF1010B0BEA030BD6
:101810004AEA0B042146404602F03AFDBDE8F09F3B
:1018200000BF00F00702064B19684FF6FF0319408E
:10183000044B0B4343EA0221014B196000BF704780
:101840000CED00E00000FA05012001490862704734
:1018500000000E42064A126822F00402044B1A608D
:10186000012901D130BF02E040BF20BF20BF704737
:1018700010ED00E02DE9F04385B006463BA30FCB09
:1018800001AC0FC43DA0006800904FF00008002597
:1018900000270024A146012E30D0022E55D0102E54
:1018A0005ED137484468006800F0807000B301A83A
:1018B000C4F38341475C04F4803070B13048406821
:1018C000C0F340401DF8008004F4803040B12D4842
:1018D000B0FBF8F000FB07F502E02B4807FB00F532
:1018E0002748406800F48000B0F5800F01D1A94678
:1018F00003E068000321B0FBF1F932E02048046AFC
:1019000004F44070B0F5807F05D104F0020010B1FE
:101910004FF4004918E004F44070B0F5007F07D19F
:101920001748406A00F0020010B149F640490BE048
:1019300004F44070B0F5407F06D11148006800F40F
:10194000003008B14FF224490BE000F093F90C4944
:101950004968C1F38131491C4900B0FBF1F900E04D
:1019600000BF00BF484605B0BDE8F0830203040590
:10197000060708090A0B0C0D0E0F101001020000DB
:101980000010024000127A0000093D00F8B504463C
:1019900000260025207800F0010000286BD00027E9
:1019A0004348C06900F0805070B900BF4048C0692A
:1019B00040F080503E49C8610846C06900F0805040
:1019C000009000BF00BF01273A48006800F4807013
:1019D000B0B93848006840F4807036490860FFF7B5
:1019E0005BFE064606E0FFF757FE801B642801D920
:1019F0000320F8BD2F48006800F480700028F2D062
:101A00002B48006A00F440752DB3A08800F44070A4
:101A1000A84220D02648006A20F4407501202649BB
:101A20000860002008602248056205F0010090B1BE
:101A3000FFF732FE064608E0FFF72EFE801B41F25C
:101A40008831884201D90320D3E71948006A00F0A1
:101A500002000028F0D01648006A20F44070616847
:101A6000084313490862012F04D10846C06920F0D9
:101A70008050C86100BF207800F00200022807D122
:101A80000B48406820F44040A1680843084948607A
:101A9000207800F01000102807D10548406820F495
:101AA0008000E1680843024948600020A1E7000087
:101AB00000100240007000404004424270B50446ED
:101AC0000D460CB9012070BD5A48006800F00700AF
:101AD000A8420ED25748006820F007002843554915
:101AE00008600846006800F00700A84201D0012005
:101AF000E9E7207800F0020002281DD1207800F0EC
:101B00000400042805D14C48406840F4E0604A498C
:101B10004860207800F00800082805D14648406851
:101B200040F46050444948604348406820F0F00069
:101B3000A168084340494860207800F0010078B36C
:101B40006068012806D13C48006800F4003090B974
:101B50000120B8E76068022806D13748006800F025
:101B6000007040B90120AEE73348006800F0020081
:101B700008B90120A7E73048406820F003006168F9
:101B800008432D494860FFF787FD064609E0FFF747
:101B900083FD801B41F28831884202D9032092E7FD
:101BA00007E02548406800F00C006168B0EB810F49
:101BB000EDD12048006800F00700A8420ED91D486A
:101BC000006820F0070028431A49086008460068AA
:101BD00000F00700A84201D0012074E7207800F04F
:101BE0000400042807D11448406820F4E060E1684C
:101BF000084311494860207800F00800082808D1FF
:101C00000D48406820F46050216940EAC1000A494B
:101C1000486000F03FF808494968C1F30311074ADA
:101C2000515CC8400649086006480068FFF75AFD45
:101C3000002048E70020024000100240144900083C
:101C4000F4000020EC00002001480068704700000C
:101C5000F400002000B5FFF7F7FF04494968C1F31D
:101C60000221034A515CC84000BD00000010024040
:101C70002449000800B5FFF7E7FF04494968C1F3AC
:101C8000C221034A515CC84000BD00000010024060
:101C900024490008F0B585B00FF26C0C9CE8E01008
:101CA00001A8A0E8E0101CA52D68009500210022E5
:101CB000002300240020194D696801F00C05F5B1DE
:101CC000042D02D0082D19D101E0154819E001AD0D
:101CD000C1F38346AC5D01F4803555B10F4D6D689D
:101CE000C5F340451DF805200D4D6543B5FBF2F3E6
:101CF00002E00C4D04FB05F3184602E000BF084863
:101D000000BF00BF05B0F0BD0203040506070809C7
:101D10000A0B0C0D0E0F1010010200000010024003
:101D200000127A0000093D00F8B504460CB9012004
:101D3000F8BD207800F00100002878D0F84840680D
:101D400000F00C0004280CD0F548406800F00C00AE
:101D5000082811D1F248406800F48030B0F5803F87
:101D60000AD1EF48006800F4003000285FD06068B6
:101D700000285CD10120DBE700BF6068B0F5803F40
:101D800006D1E748006840F48030E549086028E063
:101D9000606858B9E248006820F48030E049086083
:101DA0000846006820F4802008601AE06068B0F5FA
:101DB000A02F0BD1DA48006840F48020D849086091
:101DC0000846006840F4803008600AE0D4480068A3
:101DD00020F48030D24908600846006820F4802052
:101DE000086000BF606888B1FFF756FC054606E052
:101DF000FFF752FC401B642801D9032098E7C8482C
:101E0000006800F400300028F2D010E0FFF744FC36
:101E1000054606E0FFF740FC401B642801D903207B
:101E200086E7BF48006800F400300028F2D120782F
:101E300000F00200022857D1B948406800F00C00B9
:101E400050B1B748406800F00C00082818D1B448D9
:101E5000406800F4803098B9B148006800F0020092
:101E600020B12069012801D0012061E7AC48006859
:101E700020F0F800616940EAC100A949086033E038
:101E80002069E8B10120A7490860FFF705FC054675
:101E900006E0FFF701FC401B022801D9032047E7B9
:101EA0009F48006800F002000028F2D09C480068BB
:101EB00020F0F800616940EAC1009949086013E028
:101EC000002098490860FFF7E7FB054606E0FFF7AA
:101ED000E3FB401B022801D9032029E79048006852
:101EE00000F002000028F2D1207800F00800082855
:101EF0002DD1A069B8B101208B490860FFF7CCFB58
:101F0000054606E0FFF7C8FB401B022801D9032065
:101F10000EE78348406A00F002000028F2D001205A
:101F200001F038FC13E000207F490860FFF7B4FBA4
:101F3000054606E0FFF7B0FB401B022801D903204D
:101F4000F6E67748406A00F002000028F2D12078D7
:101F500000F00400042873D100277148C06900F024
:101F6000805070B900BF6E48C06940F080506C4925
:101F7000C8610846C06900F08050009000BF00BFF3
:101F800001276A48006800F48070B0B967480068AB
:101F900040F4807065490860FFF77EFB054606E067
:101FA000FFF77AFB401B642801D90320C0E65F4895
:101FB000006800F480700028F2D000BFE0680128BB
:101FC00006D15748006A40F001005549086227E0F1
:101FD000E06858B95248006A20F001005049086290
:101FE0000846006A20F00400086219E0E06805284D
:101FF0000BD14B48006A40F004004949086208468A
:10200000006A40F0010008620AE04548006A20F0DA
:102010000100434908620846006A20F00400086293
:1020200000BFE068A0B1FFF737FB054609E0FFF706
:1020300033FB401B41F28831884202D9032077E606
:1020400022E03748006A00F002000028EFD012E0DA
:10205000FFF722FB054608E0FFF71EFB401B41F29D
:102060008831884201D9032062E62D48006A00F0D9
:1020700002000028F0D1012F05D12948C06920F0C5
:1020800080502749C86100BFE069C8B32448406850
:1020900000F00C00082860D0E069022848D1002038
:1020A00020490866FFF7F8FA054606E0FFF7F4FA5C
:1020B000401B022801D903203AE61948006800F0C5
:1020C00000700028F2D1206AB0F5803F07D1144893
:1020D000406820F40030A168084311494860D4E901
:1020E000080108430E49496821F4741108430C495A
:1020F000486001200B490866FFF7CEFA054607E065
:102100003DE0FFF7C9FA401B022801D903200FE682
:102110000348006800F000700028F2D02FE00000B3
:102120000010024000004242800442420070004021
:10213000002014490866FFF7AFFA054606E0FFF7EE
:10214000ABFA401B022801D90320F1E50E480068D4
:1021500000F000700028F2D111E0E069012800D100
:10216000E6E50948466806F48031206A814204D1D8
:1021700006F47011606A814201D00120D8E5002088
:10218000D6E5000000004242001002401CB50446A3
:10219000002201A9204600F057F808B1FEF7BBFA6B
:1021A0009DF806000A4908709DF805000949087065
:1021B0009DF804000849087005480078009005481B
:1021C00003780846027805A10A48FEF701F81CBD0D
:1021D000D4000020D5000020D600002020202020A0
:1021E000253032643A253032643A2530326420207A
:1021F0002020200038020020704710B504462068D7
:10220000006800F00100F0B12068406800F00100B3
:10221000C8B120684068C0F3800048B12046FFF78D
:10222000EBFF6FF00400216848600420607404E054
:102230002046FFF7ABFF012060742068406820F063
:1022400001002168486010BD2DE9F04780460C462A
:10225000914600250026AA460027B8F1000F00D0BD
:1022600014B90120BDE8F087D8F800004068C0F339
:10227000800008B10120F5E7404601F07AFB0546F1
:102280004FF46160B5FBF0F7B5FBF0F100FB1150C6
:102290003C21B0FBF1F060704FF46160B5FBF0F1F0
:1022A00000FB11503C21B0FBF1F201FB1200A070C9
:1022B000182F39D31820B7FBF0FAB7FBF0F100FB69
:1022C00011702070404601F048FB0646701C18B1A2
:1022D000AE4201D9761B01E04FF0FF360AEB4A000F
:1022E000C000C0EB4011C1EB0020A5EB0015294652
:1022F000404601F0B1FB08B10120B3E7701C38B1D2
:102300002E443146404601F090FB40B10120A9E740
:102310003146404601F089FB08B10120A2E7514651
:10232000404601F063FA00E02770B9F1000F0BD0CE
:10233000207801F04EFA2070607801F04AFA60705F
:10234000A07801F046FAA07000208BE770B5044633
:1023500000250CB9012070BD607C20B900202074DC
:10236000204600F05BF802206074204600F068F917
:1023700018B1042060740120EDE7204601F091FAC5
:1023800018B1042060740120E5E72068406820F05F
:10239000070021684860A06828B11F48006820F045
:1023A00001001D4908601C48001F006820F460708F
:1023B000A16808431849091F08606068401C08B1FB
:1023C000656809E00120FFF755FA05461DB90420AC
:1023D00060740120BFE76D1E2068806820F00F0048
:1023E00040EA1540216888602068C06865F30F00E6
:1023F0002168C860204601F071FA18B104206074A9
:102400000120A8E70021E17301216173A17301207C
:10241000607400209FE70000306C004038B504462F
:102420000F49206888421AD1FFF70EFA00BF0D4805
:10243000C06940F000600B49C8610846C06900F0FF
:102440000060009000BF00BF012007490860002223
:1024500011460320FFF7A6F90320FFF793F938BDD3
:1024600000280040001002403C0442422DE9F047A1
:1024700004460D46904600260027B14604B115B922
:102480000120BDE8F08700BF207C012801D1022097
:10249000F7E70120207400BF02206074B8F1000F3C
:1024A00006D1E978E17369786173A978A1730BE0CB
:1024B000E87801F083F9E073687801F07FF96073E0
:1024C000A87801F07BF9A073A27B617BE07B01F02F
:1024D0006AFA2073207B2870204601F04AFA0646EB
:1024E0004FF46160B6FBF0F9B9F1180F2FD918203D
:1024F000B9FBF0F000EB4000C000C0EB4011C1EBB5
:102500000020A6EB00163146204601F0A5FA38B1AE
:102510000420607400BF0020207400BF0120B0E7D9
:10252000204601F01AFA0746781C80B1B7420ED255
:102530000B4807443946204601F077FA38B10420A9
:10254000607400BF0020207400BF012099E70120C3
:10255000607400BF0020207400BF00BF91E700003E
:10256000805101002DE9F04704460D4690460026B3
:10257000002704B115B90120BDE8F08700BF207C19
:10258000012801D10220F7E70120207400BF0220BA
:102590006074B8F1000F0BD128784FF461614843A3
:1025A0006978C1EB011100EB8100A978461812E0AF
:1025B000287801F003F94FF4616100FB01F96878B4
:1025C00001F0FCF8C0EB001009EB8009A87801F0DD
:1025D000F5F809EB00063146204601F03DFA38B126
:1025E0000420607400BF0020207400BF0120C3E7F6
:1025F0002068406820F0050021684860204601F00E
:10260000ACF90746781C80B1B7420ED20B4807449C
:102610003946204601F009FA38B10420607400BF41
:102620000020207400BF0120A6E70120607400BFD5
:102630000020207400BF00BF9EE700008051010011
:1026400070B5044600250CB9012070BD20684068B3
:1026500020F0080021684860FFF71EF8054607E0F3
:10266000FFF71AF8401BB0F57A7F01D90320ECE799
:102670002068406800F008000028F1D00020E4E75E
:102680004FF0E020006940F002004FF0E0210861C7
:10269000704770B504462546681EB0F1807F01D3AF
:1026A00001200FE0681E4FF0E02148610F214FF03C
:1026B000FF3001F0EDFD00204FF0E02188610720A0
:1026C0000861002070BD4FF0E020006920F002009A
:1026D0004FF0E021086170477047704730B50246FF
:1026E0000B4600BF92F83C00012801D1022030BD0A
:1026F000012082F83C0000BF022082F83D001068F3
:1027000044681068816824F07004186804431068F5
:1027100044600E4D1068A84207D01068B0F1804F99
:1027200003D00B4D1068A84205D121F080015868F4
:10273000014310688160012082F83D0000BF002045
:1027400082F83C0000BF00BFD1E70000002C014030
:102750000004004010B504460CB9012010BD94F8E7
:102760003D0028B9002084F83C00204600F026F8FF
:10277000022084F83D00211D206801F041FA01206B
:1027800084F8460000BF84F83E0001213F20015537
:10279000402001554120015500BF00BF012084F8B1
:1027A000420043200155442001554520015500BFFA
:1027B000012084F83D000020D0E7000038B5044631
:1027C0000D492068884215D100BF0C48C06940F00F
:1027D00002000A49C8610846C06900F00200009082
:1027E00000BF00BF002211461D20FEF7DBFF1D20A9
:1027F000FEF7C8FF38BD0000000400400010024092
:10280000014691F83D00012801D0012070470220C7
:1028100081F83D000868C06840F001000B68D8608E
:10282000104B0868984207D00868B0F1804F03D079
:102830000D4B086898420CD10868806800F00702C8
:10284000062A0CD00868006840F001000B68186088
:1028500005E00868006840F001000B68186000207F
:10286000D4E70000002C0140000400400146086845
:10287000C06820F001000A68D06000BF0868006AE4
:1028800041F21112104050B90868006A92101040CD
:1028900028B90868006820F001000A68106000BFCD
:1028A000012081F83D00002070472DE9F0410446E9
:1028B0000D4600BF94F83C00012802D10220BDE87B
:1028C000F081012084F83C0000BF022084F83D0024
:1028D0002068866826F0770626F47F4620688660A2
:1028E0002868502833D00CDC202850D004DC002885
:1028F0004BD0102851D149E0302849D040284CD144
:1029000039E060282DD0702807D0B0F5805F03D063
:10291000B0F5005F41D10DE040E0D5E902136A68EF
:10292000206801F033FA2068866846F07706206850
:10293000866033E0D5E902136A68206801F026FA60
:102940002068806840F480402168886026E0EA685A
:102950006968206801F0EAFA5021206801F021FA44
:102960001CE0EA686968206801F0F3FA60212068D9
:1029700001F017FA12E0EA686968206801F0D6FAF7
:102980004021206801F00DFA08E000BF00BF00BF41
:102990002968206801F005FA00E000BF00BF0120AF
:1029A00084F83D0000BF002084F83C0000BF00BF59
:1029B00085E77047704710B5044620680069C0F38A
:1029C0004000D8B12068C068C0F34000B0B16FF0DB
:1029D000020021680861012020772068806900F0EA
:1029E000030018B12046FFF7E5FF05E0204600F0A0
:1029F000D5F8204600F0C8F900202077206800694B
:102A0000C0F38000D8B12068C068C0F38000B0B1C6
:102A10006FF0040021680861022020772068806937
:102A200000F4407018B12046FFF7C4FF05E02046CF
:102A300000F0B4F8204600F0A7F9002020772068C5
:102A40000069C0F3C000D8B12068C068C0F3C000FE
:102A5000B0B16FF008002168086104202077206879
:102A6000C06900F0030018B12046FFF7A3FF05E09E
:102A7000204600F093F8204600F086F900202077E9
:102A800020680069C0F30010D8B12068C068C0F3A6
:102A90000010B0B16FF010002168086108202077A5
:102AA0002068C06900F4407018B12046FFF782FF2B
:102AB00005E0204600F072F8204600F065F900209D
:102AC00020772068006900F0010058B12068C068D4
:102AD00000F0010030B16FF001002168086120466C
:102AE00000F050FA20680069C0F3C01058B12068A7
:102AF000C068C0F3C01030B16FF080002168086179
:102B00002046FFF7E9FD20680069C0F3801058B146
:102B10002068C068C0F3801030B16FF040002168B9
:102B20000861204600F02FFA20680069C0F34010C9
:102B300058B12068C068C0F3401030B16FF0200079
:102B4000216808612046FFF7C8FD10BD10B586B0AA
:102B50000446002002900390049005902068B0F194
:102B6000804F15D100BF0B48806940F0040009492F
:102B700088610846806900F00400019000BF00BF32
:102B8000022002900390059002A90348FEF7E6FB9D
:102B900006B010BD0010024000080140704770B53B
:102BA00004460D46164600BF94F83C00012801D1AA
:102BB000022070BD012084F83C0000BF36B1042E15
:102BC0001BD0082E31D00C2E5ED145E0294620685E
:102BD00001F0F0F82068806940F008002168886101
:102BE0002068806920F0040021688861206880697D
:102BF000296908432168886147E02946206801F077
:102C000009F92068806940F40060216888612068C3
:102C1000806920F480602168886120688069296962
:102C200040EA0120216888612FE02946206801F0F0
:102C300025F92068C06940F008002168C861206853
:102C4000C06920F004002168C8612068C069296952
:102C500008432168C86118E02946206801F042F95C
:102C60002068C06940F400602168C8612068C069BC
:102C700020F480602168C8612068C069296940EA41
:102C800001202168C86100E000BF00BF00BF002034
:102C900084F83C0000BF00BF8BE710B504460CB9B8
:102CA000012010BD94F83D0028B9002084F83C00B4
:102CB000204600F025F8022084F83D00211D206800
:102CC00000F09EFF012084F8460000BF84F83E001B
:102CD00001213F200155402001554120015500BFF1
:102CE00000BF012084F842004320015544200155D3
:102CF0004520015500BF012084F83D000020D0E7A9
:102D000038B504462068B0F1804F35D100BF1B486C
:102D1000C06940F001001949C8610846C06900F067
:102D20000100009000BF00BF154816490860002050
:102D300048600021134881608021C1604900016121
:102D40008900416100218161C161FEF7A1F908B1EB
:102D5000FDF7E1FC00BF0B49A1620846446200BFD9
:102D600000BF2163446200BF002211461C20FEF711
:102D700019FD1C20FEF706FD38BD000000100240C2
:102D8000800002405C030020704770472DE9F0414D
:102D900004460D4616461F4615B994F83E000BE052
:102DA000042D02D13F20005D06E0082D02D1402015
:102DB000005D01E04120005D022801D1BDE8F08105
:102DC00015B994F83E000BE0042D02D13F20005DC0
:102DD00006E0082D02D14020005D01E04120005DA9
:102DE000012817D10EB907B1E8E71DB9022084F810
:102DF0003E0011E0042D03D102213F2001550BE0DC
:102E0000082D03D102214020015505E00221412077
:102E1000015501E00120D1E735B1042D1FD0082D67
:102E200038D00C2D6CD150E05149606A8162514913
:102E3000606AC1625049606A0163216801F134022D
:102E40003B463146606AFEF757F908B10120B5E705
:102E50002068C06840F400702168C86051E04449AF
:102E6000A06A81624349A06AC1624349A06A0163C2
:102E7000216801F138023B463146A06AFEF73CF971
:102E800008B101209AE72068C06840F4806021689A
:102E9000C86036E03649E06A81623649E06AC1625C
:102EA0003549E06A0163216801F13C023B46314645
:102EB000E06AFEF721F908B101207FE72068C068C9
:102EC00040F400602168C8601BE02949206B8162E2
:102ED0002849206BC1622849206B0163216801F1F8
:102EE00040023B463146206BFEF706F908B101204F
:102EF00064E72068C06840F480502168C86000E042
:102F000000BF00BF01222946206800F0ABFE1B492C
:102F10002068884201D1012000E0002028B120680B
:102F2000406C40F40040216848641449206888429D
:102F300007D02068B0F1804F03D011492068884243
:102F40000DD12068806800F00708B8F1060F0CD09A
:102F50002068006840F001002168086005E02068F2
:102F6000006840F0010021680860002026E70000AA
:102F7000873C0008EF3C00082F3D0008002C014072
:102F80000004004070477047704770472DE9F84FC4
:102F90000446206805682068C668206847694FF0C5
:102FA0000009CA4605F00F09B9F1000F0AD105F072
:102FB000200038B106F0200020B1204601F012F8C0
:102FC000BDE8F88FB9F1000F71D007F0010018B912
:102FD00006F4907000286AD005F0010030B106F4C4
:102FE000807018B1206C40F00100206405F00400EE
:102FF00030B107F0010018B1206C40F002002064ED
:1030000005F0020030B107F0010018B1206C40F06B
:103010000400206405F0080048B106F0200010B953
:1030200007F0010018B1206C40F008002064206C0B
:1030300068B305F0200028B106F0200010B120464A
:1030400000F0D0FF20684069C0F3801A206C00F0C7
:10305000080010B9BAF1000F22D0204600F097FF07
:103060002068406900F04000B0B12068406920F05D
:10307000400021684861A06B50B15648A16B48637D
:10308000A06BFDF7DFFE10B1A06B416B88470CE031
:103090002046FFF77AFF08E02046FFF776FF04E0BE
:1030A0002046FFF772FF0020206489E7FFE7206BCE
:1030B000012878D105F01000002874D006F0100027
:1030C000002870D000BF00200090206800680090A9
:1030D00020684068009000BF00BF2068406900F091
:1030E0004000C0B3A06B006840681FFA80F8B8F1D8
:1030F000000F2FD0A08D40452CDDA4F82E80A06BB2
:10310000806920281FD02068C06820F48070216862
:10311000C8602068406920F001002168486120688B
:10312000406920F0400021684861202084F83E007A
:10313000002020632068C06820F010002168C8606B
:10314000A06BFDF753FEA08DE28D801A81B2204660
:10315000FFF71AFF34E7FFE7A08DE18D401A1FFA51
:1031600080F8E08DE8B1B8F1000F1AD02068C0688F
:1031700020F490702168C8602068406920F0010048
:1031800021684861202084F83E00002020632068E8
:10319000C06820F010002168C86041462046FFF753
:1031A000F3FE0DE7FFE705F0800030B106F0800088
:1031B00018B1204601F029F802E705F0400030B1CF
:1031C00006F0400018B1204600F0FCFEF8E600BF13
:1031D000F6E600007B3F000810B504460CB901205C
:1031E00010BDA06900B100E000BF94F83D0028B90F
:1031F000002084F83C00204600F028F8242084F8C1
:103200003D002068C06820F400502168C860204656
:1032100000F05AFF2068006920F49040216808619E
:103220002068406920F02A00216848612068C06851
:1032300040F400502168C86000202064202084F8F9
:103240003D0084F83E000020CAE7000010B586B0BB
:1032500004460020029003900490059022492068C3
:1032600088423ED100BF2148806940F480401F4918
:1032700088610846806900F48040019000BF00BF6B
:1032800000BF0846806940F00800886108468069F0
:1032900000F00800019000BF00BF40200290022013
:1032A00003900320059002A91148FEF757F88020EB
:1032B000029000200390049002A90D48FEF74EF8FA
:1032C00000BF0C49486840F0E06040F004004860EE
:1032D00000BF002211462520FEF764FA2520FEF7E4
:1032E00051FA06B010BD0000003801400010024045
:1032F000000C01400000014070B504460D46164622
:1033000094F83E00202816D105B10EB9012070BDF9
:1033100000BF94F83C00012801D10220F7E701200A
:1033200084F83C0000BF0020206332462946204636
:1033300000F048FFEBE70220E9E7000070B5064621
:10334000082237493748FFF7D7FF08B1FDF7E3F9FF
:103350003348C07973285ED13348006800285AD1B9
:103360002F4800783038642148432D494978303956
:1033700001EB810100EB4101294880783038084495
:103380002A4908602648C0783038642148432449D7
:103390000979303901EB810100EB41012048407986
:1033A00030380844224908604FF480512148FEF724
:1033B00063F900202049086001201B490860184873
:1033C0008079312803D101201C4908700AE0144893
:1033D0008079322803D102201849087002E00320C6
:1033E000164908701548007800F001041348007869
:1033F000C0F3400514B14FF4007001E04FF00070CD
:1034000015B14FF4806101E04FF080610843094934
:103410001031086000BF00200949086070BD00003D
:1034200024000020A003002020000020180000201D
:103430001C00002000080140CC00002014000020E7
:10344000D0000020704700BFFEE700000EB500204E
:103450000090019002901248124908600021114822
:103460008160017301754FF46021C16100200D4935
:10347000486001210B480161FDF710FB08B1FDF721
:103480004AF903200090012001900520029069462E
:103490000448FDF745F908B1FDF73DF90EBD000000
:1034A000002401408802002008B500BF0A48406996
:1034B00040F00100084948610846406900F00100F9
:1034C000009000BF00BF002211461120FEF76AF9EC
:1034D0001120FEF757F908BD0010024000B585B075
:1034E0000020019002900390049000BF3D48806945
:1034F00040F020003B4988610846806900F02000C8
:10350000009000BF00BF00BF0846806940F0040083
:1035100088610846806900F00400009000BF00BF89
:1035200000BF0846806940F008008861084680694D
:1035300000F00800009000BF00BF00224FF61041CD
:103540002948FEF7A3F800224FF4B0512748FEF7B0
:103550009DF824200190264802900220039001A9A2
:103560002148FDF7FBFE4FF610400190012002902C
:10357000002003900220049001A91B48FDF7EEFEF5
:103580004FF4106001901A4802900220039001A9A4
:103590001648FDF7E3FE4FF4B05001900120029071
:1035A000002003900220049001A91048FDF7D6FEE8
:1035B000002211460820FEF7F5F80820FEF7E2F891
:1035C000002211461720FEF7EDF81720FEF7DAF873
:1035D000002211462820FEF7E5F82820FEF7D2F851
:1035E00005B000BD00100240000C01400008014081
:1035F000000011101CB500200190009019481A49D4
:1036000008604FF0FF3048604FF4807116488160C9
:10361000FEF79CFE08B1FDF77EF823208DF804002C
:1036200000208DF805008DF80600012201A90E4842
:10363000FEF798FF08B1FDF76EF800208DF8000046
:1036400005208DF8010029208DF8020000208DF85A
:103650000300012269460448FEF708FF08B1FDF7A0
:103660005AF81CBD00280040B802002000B589B0FF
:103670000020079008901C216846FCF7BDFE4FF023
:103680008040174908607C20486000211448816010
:103690004FF6FF11C160002101618161FFF7FDFA62
:1036A00008B1FDF738F800200790089007A90C48EA
:1036B000FFF714F808B1FDF72EF860200090002005
:1036C000019002900490042269460548FFF767FACA
:1036D00008B1FDF720F80248FFF738FA09B000BD3D
:1036E000CC02002000B587B0002003900490059024
:1036F0000690019002901448144908607C204860AC
:103700000021124881604FF6FF11C1600021016164
:103710008161FFF71FF808B1FCF7FDFF4FF48050FF
:10372000039003A90948FFF7C0F808B1FCF7F3FFBD
:1037300000200190029001A90448FEF7CFFF08B1D4
:10374000FCF7E9FF07B000BD0004004014030020AF
:1037500010B50B480B4908604FF416504860002123
:1037600008488160C16001610C21416100218161D3
:10377000C161FFF731FD08B1FCF7CDFF10BD0000BE
:1037800000380140A003002000BFFEE700BFFEE7B5
:103790007047000008B508490968C9084FF47A72F3
:1037A000B1FBF2F14143009100BF00BF00994A1EF6
:1037B00000920029F9D108BDF4000020014600BFA5
:1037C000080900EB8000420001F00F001044C0B275
:1037D00070470146002203E0521CA1F10A00C1B269
:1037E0000A29F9D2100741EA106070472DE9F04725
:1037F00006468846002700240025A146F77B747BF7
:10380000B57B00BF40E0012C0BD0032C09D0052C68
:1038100007D0072C05D0082C03D00A2C01D00C2C83
:103820000CD11F2D01D26D1C2CE00C2C02D0641C7D
:10383000012527E0012401257F1C23E0042C05D06D
:10384000062C03D0092C01D00B2C06D11E2D01D241
:103850006D1C17E0641C012514E0022C12D11C2DF4
:1038600001D26D1C0EE01C2D08D1B8B200F05CF83E
:1038700008B16D1C06E0641C012503E01D2D01D17B
:10388000641C012509F10109C145BCD3F7737473A8
:10389000B573EAB2E1B2384600F085F83073BDE89E
:1038A000F08770B504460025FDF7F6FE054607E0F3
:1038B000FDF7F2FE401BB0F57A7F01D9032070BD01
:1038C0002068406800F020000028F1D0206840689F
:1038D00040F01000216848600020F0E770B5044611
:1038E00000252068406820F0100021684860FDF73E
:1038F000D3FE054607E0FDF7CFFE401BB0F57A7F0B
:1039000001D9032070BD2068406800F02000002825
:10391000F1D00020F6E7000010B50248FEF76DFC7C
:1039200010BD0000B8020020014601F0030008B1FC
:10393000002070476420B1FBF0F200FB121008B1C8
:103940000120F6E74FF4C870B1FBF0F200FB121053
:1039500008B90120EDE70020EBE701460022002333
:103960000868006A82B20868406A83B243EA02408B
:10397000704730B5014600220023002400200D6866
:10398000AD69AAB20D68ED69ACB20D68AD69ABB2B4
:103990009A4205D00D68ED6963F31F45284601E0A2
:1039A00044EA024030BDF0B504460B460021002534
:1039B00004F5FA61032B1BD2C3EBC30000EB031029
:1039C0000926B0FBF6F01044001D4618481E06EB11
:1039D00090066427B0FBF7F0361A481EBF00B0FB14
:1039E000F7F030440726B0FBF6F706FB17051AE0A0
:1039F000C3EBC30000EB03100926B0FBF6F0104444
:103A0000001D084400EB91006426B1FBF6F6801B14
:103A10004FF4C876B1FBF6F63044801E0726B0FBA3
:103A2000F6F706FB1705E8B2F0BD70B504460D4683
:103A300000262046FFF735FF08B101260AE0280CD2
:103A400021680862A8B2216848622046FFF746FF55
:103A500000B10126304670BD70B504460D46002603
:103A60002046FFF71EFF08B101260AE0280C216856
:103A70008861A8B22168C8612046FFF72FFF00B116
:103A80000126304670BD704710B5FDF70BFE10BD26
:103A900000B593B0282109A8FCF7AEFC142104A8B6
:103AA000FCF7AAFC002000900190029003900A20ED
:103AB000099001200D9010200E9001200F90002001
:103AC000109009A8FEF730F908B1FCF724FE0F208A
:103AD00004900020059006904FF48060079000202D
:103AE0000890002104A8FDF7E9FF08B1FCF713FED8
:103AF000032000904FF4007001900020029068466F
:103B0000FDF744FF08B1FCF706FE13B000BD704797
:103B100010B50848FEF74FFF0748016807480068DE
:103B2000C01C814204D1002210210548FDF7AEFDE2
:103B300010BD0000CC020020CC0000201C000020A2
:103B4000000C014010B52548FEF735FF24480068F9
:103B5000401C2349086023480068401C2149086034
:103B600021480068012834D11D4800681F490968B0
:103B7000884206D01A4801681C480068401C8142EF
:103B80002AD11748016819480068401C81420CD1AD
:103B9000002210211648FDF779FD00201249086027
:103BA000144908600F49086016E04FF4805112482C
:103BB000FDF762FD00200B490860012210210C482E
:103BC000FDF764FD0423052219460C48FFF7DEF8D3
:103BD00002E000200249086010BD0000140300202C
:103BE000CC000020D0000020200000201C0000207D
:103BF000000C0140DC00002000080140CC02002045
:103C000010B50268154B984205D0B0F1804F02D034
:103C1000134B984203D122F070024B681A430F4BAA
:103C2000984205D0B0F1804F02D00D4B984203D19D
:103C300022F44072CB681A4322F080034C6943EAB5
:103C4000040202608B68C3620B688362034B984274
:103C500001D10B6903630123436110BD002C0140B6
:103C60000004004030B501F01F05012404FA05F3FB
:103C7000046A9C430462046A01F01F0502FA05F518
:103C80002C43046230BD70B505466C6A606AA84278
:103C900007D101202077A86918BB012084F83E00D5
:103CA0001FE0A06AA84207D102202077A869C0B906
:103CB00001213F20015514E0E06AA84207D1042009
:103CC0002077A86968B901214020015509E0206BDF
:103CD000A84206D108202077A86910B90121412007
:103CE00001552046FFF750F80020207770BD70B5D1
:103CF00005466C6A606AA84202D10120207710E074
:103D0000A06AA84202D1022020770AE0E06AA84215
:103D100002D10420207704E0206BA84201D10820C2
:103D200020772046FFF731F80020207770BD70B56E
:103D300005466C6A606AA84204D10120207784F8A5
:103D40003E001DE0A06AA84205D102202077012193
:103D50003F20015514E0E06AA84205D104202077F5
:103D60000121402001550BE0206BA84205D108201D
:103D7000207701214120015502E0012084F83D0017
:103D80002046FEF716FE0020207770BD30B50C46A9
:103D9000816821F47F4142EA03252543294381605C
:103DA00030BD0A46816821F0700142F007031943D3
:103DB0008160704730B5056A25F001050562026A29
:103DC0004368846924F0700424F003040D682C43D4
:103DD00022F002028D682A430D4DA84206D100BF91
:103DE00022F00802CD682A4322F00402084DA842BE
:103DF00007D123F4807323F400734D692B438D693D
:103E00002B43436084614D684563026230BD00000E
:103E1000002C014030B5056A25F010050562026AE4
:103E20004368846924F4E04424F440740D6844EA4F
:103E3000052422F020028D6842EA05120E4DA842A8
:103E400007D100BF22F08002CD6842EA051222F0BD
:103E50004002094DA84209D123F4806323F4006392
:103E60004D6943EA85038D6943EA850343608461B4
:103E70004D688563026230BD002C014030B5056A93
:103E800025F480750562026A4368C46924F07004F1
:103E900024F003040D682C4322F400728D6842EA7A
:103EA00005220F4DA84207D100BF22F40062CD6861
:103EB00042EA052222F48062094DA84209D123F486
:103EC000805323F400534D6943EA05138D6943EA97
:103ED00005134360C4614D68C563026230BD0000D4
:103EE000002C014030B5056A25F480550562036A4F
:103EF0004468C26922F4E04222F440720D6842EA4A
:103F0000052223F400538D6843EA0533064DA84289
:103F100004D124F480444D6944EA85144460C261AC
:103F20004D680564036230BD002C014030B50B467E
:103F30001446026A056A25F001050562816921F0CF
:103F4000F00141EA041122F00A021A43816102627F
:103F500030BD30B50B461446056A25F010050562E4
:103F60008169026A21F4704141EA043122F0A00221
:103F700042EA03128161026230BD70B505466C6A87
:103F80000020E085E0842046FEF7FFFF70BD016859
:103F9000C96821F490710268D1600168496921F013
:103FA000010102685161016B012905D10168C968ED
:103FB00021F010010268D160202180F83E1000211C
:103FC0000163704710B504462068C06820F04000C7
:103FD0002168C860202084F83D002046FFF732FAAF
:103FE000002010BDF8B5044694F83E00222869D19F
:103FF000A068B0F5805F0CD1206950B90025A66A91
:1040000020684068C0F308003080A06A801CA0626D
:1040100015E0A56A0026A068B0F5805F03D0A0680F
:1040200028B9206918B920684068287004E0206821
:10403000406800F07F002870A06A401CA062E08DFC
:10404000401E80B2E085A8BB2068C06820F0200038
:104050002168C8602068C06820F480702168C8604A
:104060002068406920F0010021684861202084F820
:104070003E00206B01281ED1002020632068C0680C
:1040800020F010002168C8602068006800F010006F
:1040900010280AD100BF002000902068006800901E
:1040A00020684068009000BF00BFA18D2046FEF749
:1040B0006BFF03E004E02046FFF740F90020F8BD65
:1040C0000020FCE70220FAE770B504462168096980
:1040D00021F44051E2681143226811612269A1680C
:1040E0001143626941EA02052168C96841F20C6224
:1040F000914329432268D1602168496921F44071C4
:10410000A2691143226851612D4A2168914202D16E
:10411000FDF7B0FD01E0FDF79DFD00EBC00101EBF7
:10412000001162689200B1FBF2F100EBC00202EBF9
:10413000001263689B00B2FBF3F26423B2FBF3F25C
:1041400002EBC20303EB0212A1EB8201322202EB6B
:1041500001116422B1FBF2F101F0F00100EBC002A9
:1041600002EB001263689B00B2FBF3F26423B2FB24
:10417000F3F201EB021200EBC00101EB00116368E6
:104180009B00B1FBF3F100EBC00303EB0013666887
:10419000B600B3FBF6F36426B3FBF6F303EBC306FA
:1041A00006EB0313A1EB8301322303EB011164231C
:1041B000B1FBF3F101F00F0111442268916070BD71
:1041C0000038014010B5034699629A85DA850020CF
:1041D0001864222083F83E0000BF002083F83C00D2
:1041E00000BF1868C06840F480701C68E060186800
:1041F000406940F001001C6860611868C06840F0C8
:1042000020001C68E060002010BD014691F83D00D0
:10421000212828D18868B0F5805F0BD1086948B99A
:104220000A6A1088C0F308000B685860086A801C8E
:10423000086205E00B6A581C086218780B68586021
:10424000C88C401E80B2C88458B90868C06820F085
:1042500080000B68D8600868C06840F040000B68B8
:10426000D860002070470220FCE7000010B502482B
:10427000FEF78CFE10BD0000A003002000BFFEE78B
:1042800002480068C0F30220704700000CED00E017
:1042900010B5002804DB0A07130E054A135406E084
:1042A0000A07140E034A00F00F031B1FD45410BD5D
:1042B00000E400E018ED00E030380A2801D20120C7
:1042C00070470020704710B50121002000F076F8FB
:1042D00010BD000010B51E20FCF75CFF00224FF45B
:1042E00000511B48FDF7D2F9012211031848FDF7D0
:1042F000CDF900224FF400611548FDF7C7F90022FF
:104300004FF480611248FDF7C1F900224FF40041DB
:104310000F48FDF7BBF9012291030D48FDF7B6F9EF
:1043200000224FF480410A48FDF7B0F9282100200F
:1043300000F044F80C21002000F040F80621002095
:1043400000F03CF80121002000F038F810BD00001A
:10435000000C014070B506460C46154636B1012EDC
:104360000BD0022E10D0032E1CD114E004F18000DB
:10437000C1B2002000F022F814E004F1C000C1B284
:10438000002000F01BF80DE004F19000C1B2002005
:1043900000F014F806E004F1D000C1B2002000F0F3
:1043A0000DF800BF00BF04E02978012000F006F8F6
:1043B0006D1C28780028F7D170BD000070B5054647
:1043C0000C460220FCF7E6FE2DB10122D1034C4839
:1043D000FDF75CF905E000224FF400414848FDF785
:1043E00055F904F0800028B1012291024448FDF7FC
:1043F0004DF905E000224FF480614148FDF746F990
:1044000004F0400028B10122D1023D48FDF73EF9F9
:1044100005E000224FF400613948FDF737F904F058
:10442000200028B1012211033548FDF72FF905E0DE
:1044300000224FF480513248FDF728F904F01000B3
:1044400028B1012251032E48FDF720F905E0002292
:104450004FF400512A48FDF719F901229103284829
:10446000FDF714F900224FF480412548FDF70EF9BD
:1044700004F0080028B1012291022148FDF706F955
:1044800005E000224FF480611D48FDF7FFF804F0BD
:10449000040028B10122D1021948FDF7F7F805E020
:1044A00000224FF400611648FDF7F0F804F0020016
:1044B00028B1012211031248FDF7E8F805E00022B7
:1044C0004FF480510E48FDF7E1F804F0010028B1E7
:1044D000012251030A48FDF7D9F805E000224FF404
:1044E00000510748FDF7D2F8012291030448FDF777
:1044F000CDF800224FF480410148FDF7C7F870BDA8
:10450000000C014042A14848FBF762FEFDF7D6F8D7
:10451000FFF7BEFAFEF7E2FFFEF798FFFFF76AF833
:10452000FEF7C2FFFFF7A2F8FFF7DCF8FFF710F97C
:104530003E480068006840F001003C490968086096
:10454000FFF7C8FE3A48FEF75BF908B1FCF7E3F85D
:10455000082238493848FEF7CFFE08B1FCF7DBF8EF
:1045600054E03648FCF77EFB08B1FCF7D4F8344839
:10457000006834490968421A33A13948FBF728FE1C
:104580003848006801280AD1354A00210846FFF75B
:10459000E1FE254A00210120FFF7DCFE12E032484F
:1045A000006828B9314A00210846FFF7D3FE09E028
:1045B0002F4A00210846FFF7CDFE2E4A0021012098
:1045C000FFF7C8FE2748006800BB2B480068052895
:1045D0001CD1FFF778FE29A12448FBF7F9FDFEF76F
:1045E00072F81348FEF742F908B1FCF794F801217C
:1045F0000020FDF72FF9FEF743F80D48FEF700F90C
:1046000008B1FCF788F800201B490860A9E7000002
:10461000202020202020202020202020202020209A
:10462000202020202020200048010020B802002067
:104630001403002024000020A00300208802002092
:104640001C000020CC0000202020202564206D6963
:104650006E73206C6566742020202020000000000E
:10466000E801002020000020DC00002038020020AB
:104670002C0000207C000020D000002020202020E2
:10468000202020202020202020202020202020202A
:10469000202000004FEA41034FEA5353A3F5806303
:1046A000D3F11E03C8BFD3F1210C0CDD4FF0004243
:1046B00042EAC12242EA505232FA03FC8CEAE17C1F
:1046C000ACEBE1707047102BC4BF0020704703F5BE
:1046D000787CBCF1FF3F04D06FF0004282EA2100F9
:1046E000704770B500F0C2F84992248000207047EE
:1046F000F2E7B0FA80F310FA03F10AD0C3F11D0318
:1047000003F580634FEA41504FEA035202EBD12197
:1047100070474FF000007047DFF848C170B51CEAE1
:10472000111E1EBF1CEA13159EEA0C0F95EA0C0F12
:1047300000F06F8081EA030423EA4C134EEAD47E32
:1047400021EA4C1141F4801143F48013AE44A1FBE3
:10475000024CA0FB0365AEF17F7E361955EB0C05CC
:10476000A1FB034C4CF10003A0FB021C16EB0C0652
:10477000654153F10003094218BF46F0010613F4E6
:10478000007F0BD14FEA03314FEA0530340341EA91
:10479000155140EA16506FF003020AE04FEAC321B8
:1047A0004FEAC520F40241EA555140EA56506FF0F5
:1047B000020202EB2E4201EB025585EACE710AD0CD
:1047C0005FEA440C18BF24F0004450F1000041F1AE
:1047D000000120EAD47040F2FE7C624500D270BD38
:1047E000A84214BF4FF080444FF04044002E08BF51
:1047F0000024BEF1806FA8BFA1F1C041BDE87040A8
:1048000080F282804FF0000001F1C04101F00041D0
:1048100070479EEA0C0F0CEA131518BF95EA0C0FAF
:1048200006D04FF0000081EA030E0EF0004170BD8B
:1048300000F01CF88900013E00F007B800F009B84C
:104840004FEA430C5FEA5C5C08D081EA030100F0A8
:104850005BB84FEA410C5FEA5C5CF6D14FF00000B8
:10486000014970470000FF070000F87F0EF1020EBB
:104870002EF0030E5EF8046B364205D4012A43EB9A
:10488000030515F5001F12D8012841EB010C1CF59A
:10489000001F0CD80ED14FEAD17C15F5001F0CEB90
:1048A0004C0C0CF1020C08BF4CEBD37C04E04FF035
:1048B000080C01E04FEAD37C0CEB4C0526FA05F618
:1048C00006F00706B6F1040C06D20EEB860CBDE826
:1048D00070404CF0010C6047DFE80CF0090B02025D
:1048E0004FF000414FF00000A1F5002170BD1946C6
:1048F0001046012851EB010418BFD4F5001484BF01
:10490000002001F0004170BD0808A0F500114FEA39
:1049100031017047000000000000000001020304A4
:104920000607080900000000010203040400000853
:104930000000000000000002000100001000000064
:104940006049000800000020F8000000280100086D
:10495000584A0008F80000205009000044010008EF
:104960000000000000000000000000000000000047
:104970000000000000000000000000000000000037
:1049800000000000000000000000000020202020A7
:1049900020202020202020202020000000000000D7
:1049A0000000000000000000000000000000000007
:1049B00000000000000000000000000000000000F7
:1049C00000000000000000000000000000000000E7
:1049D0000000000000000000000000002020202057
:1049E0002020202020202020202000000000000087
:1049F00000000000000000000000000000000000B7
:104A000000000000000000000000000000000000A6
:104A10000000000000000000000000000000000096
:104A20000000000000000000000000000000000086
:104A30000000000000000000000000000000000076
:104A40000000000000000000000000001000000056
:084A5000010000000024F40045
:04000005080000ED02
:00000001FF
